{
  "_format": "hh-sol-artifact-1",
  "contractName": "MicroBounty",
  "sourceName": "contracts/MicroBounty.sol",
  "abi": [
    {
      "inputs": [
        {
          "internalType": "address[]",
          "name": "_initialTokens",
          "type": "address[]"
        }
      ],
      "stateMutability": "nonpayable",
      "type": "constructor"
    },
    {
      "inputs": [],
      "name": "ReentrancyGuardReentrantCall",
      "type": "error"
    },
    {
      "inputs": [
        {
          "internalType": "address",
          "name": "token",
          "type": "address"
        }
      ],
      "name": "SafeERC20FailedOperation",
      "type": "error"
    },
    {
      "anonymous": false,
      "inputs": [
        {
          "indexed": true,
          "internalType": "uint256",
          "name": "bountyId",
          "type": "uint256"
        },
        {
          "indexed": true,
          "internalType": "address",
          "name": "creator",
          "type": "address"
        },
        {
          "indexed": false,
          "internalType": "uint256",
          "name": "refund",
          "type": "uint256"
        },
        {
          "indexed": false,
          "internalType": "address",
          "name": "paymentToken",
          "type": "address"
        },
        {
          "indexed": false,
          "internalType": "uint256",
          "name": "timestamp",
          "type": "uint256"
        }
      ],
      "name": "BountyCancelled",
      "type": "event"
    },
    {
      "anonymous": false,
      "inputs": [
        {
          "indexed": true,
          "internalType": "uint256",
          "name": "bountyId",
          "type": "uint256"
        },
        {
          "indexed": true,
          "internalType": "address",
          "name": "hunter",
          "type": "address"
        },
        {
          "indexed": false,
          "internalType": "uint256",
          "name": "reward",
          "type": "uint256"
        },
        {
          "indexed": false,
          "internalType": "address",
          "name": "paymentToken",
          "type": "address"
        },
        {
          "indexed": false,
          "internalType": "uint256",
          "name": "timestamp",
          "type": "uint256"
        }
      ],
      "name": "BountyCompleted",
      "type": "event"
    },
    {
      "anonymous": false,
      "inputs": [
        {
          "indexed": true,
          "internalType": "uint256",
          "name": "bountyId",
          "type": "uint256"
        },
        {
          "indexed": true,
          "internalType": "address",
          "name": "creator",
          "type": "address"
        },
        {
          "indexed": false,
          "internalType": "uint256",
          "name": "reward",
          "type": "uint256"
        },
        {
          "indexed": false,
          "internalType": "address",
          "name": "paymentToken",
          "type": "address"
        },
        {
          "indexed": false,
          "internalType": "uint8",
          "name": "category",
          "type": "uint8"
        }
      ],
      "name": "BountyCreated",
      "type": "event"
    },
    {
      "anonymous": false,
      "inputs": [
        {
          "indexed": true,
          "internalType": "address",
          "name": "token",
          "type": "address"
        }
      ],
      "name": "TokenAdded",
      "type": "event"
    },
    {
      "anonymous": false,
      "inputs": [
        {
          "indexed": true,
          "internalType": "address",
          "name": "token",
          "type": "address"
        }
      ],
      "name": "TokenRemoved",
      "type": "event"
    },
    {
      "anonymous": false,
      "inputs": [
        {
          "indexed": true,
          "internalType": "uint256",
          "name": "bountyId",
          "type": "uint256"
        },
        {
          "indexed": true,
          "internalType": "address",
          "name": "hunter",
          "type": "address"
        },
        {
          "indexed": false,
          "internalType": "string",
          "name": "proofUrl",
          "type": "string"
        },
        {
          "indexed": false,
          "internalType": "uint256",
          "name": "timestamp",
          "type": "uint256"
        }
      ],
      "name": "WorkSubmitted",
      "type": "event"
    },
    {
      "inputs": [],
      "name": "MAX_DESCRIPTION_LENGTH",
      "outputs": [
        {
          "internalType": "uint256",
          "name": "",
          "type": "uint256"
        }
      ],
      "stateMutability": "view",
      "type": "function"
    },
    {
      "inputs": [],
      "name": "MAX_NOTES_LENGTH",
      "outputs": [
        {
          "internalType": "uint256",
          "name": "",
          "type": "uint256"
        }
      ],
      "stateMutability": "view",
      "type": "function"
    },
    {
      "inputs": [],
      "name": "MAX_TITLE_LENGTH",
      "outputs": [
        {
          "internalType": "uint256",
          "name": "",
          "type": "uint256"
        }
      ],
      "stateMutability": "view",
      "type": "function"
    },
    {
      "inputs": [],
      "name": "MIN_REWARD_DOT",
      "outputs": [
        {
          "internalType": "uint256",
          "name": "",
          "type": "uint256"
        }
      ],
      "stateMutability": "view",
      "type": "function"
    },
    {
      "inputs": [],
      "name": "MIN_REWARD_STABLE",
      "outputs": [
        {
          "internalType": "uint256",
          "name": "",
          "type": "uint256"
        }
      ],
      "stateMutability": "view",
      "type": "function"
    },
    {
      "inputs": [
        {
          "internalType": "uint256",
          "name": "_bountyId",
          "type": "uint256"
        }
      ],
      "name": "approveBounty",
      "outputs": [],
      "stateMutability": "nonpayable",
      "type": "function"
    },
    {
      "inputs": [
        {
          "internalType": "uint256",
          "name": "",
          "type": "uint256"
        }
      ],
      "name": "bounties",
      "outputs": [
        {
          "internalType": "uint256",
          "name": "id",
          "type": "uint256"
        },
        {
          "internalType": "address",
          "name": "creator",
          "type": "address"
        },
        {
          "internalType": "string",
          "name": "title",
          "type": "string"
        },
        {
          "internalType": "string",
          "name": "description",
          "type": "string"
        },
        {
          "internalType": "uint256",
          "name": "reward",
          "type": "uint256"
        },
        {
          "internalType": "address",
          "name": "paymentToken",
          "type": "address"
        },
        {
          "internalType": "enum MicroBounty.BountyStatus",
          "name": "status",
          "type": "uint8"
        },
        {
          "internalType": "address",
          "name": "hunter",
          "type": "address"
        },
        {
          "internalType": "string",
          "name": "proofUrl",
          "type": "string"
        },
        {
          "internalType": "string",
          "name": "submissionNotes",
          "type": "string"
        },
        {
          "internalType": "uint256",
          "name": "createdAt",
          "type": "uint256"
        },
        {
          "internalType": "uint256",
          "name": "submittedAt",
          "type": "uint256"
        },
        {
          "internalType": "uint256",
          "name": "completedAt",
          "type": "uint256"
        },
        {
          "internalType": "uint8",
          "name": "category",
          "type": "uint8"
        }
      ],
      "stateMutability": "view",
      "type": "function"
    },
    {
      "inputs": [],
      "name": "bountyCount",
      "outputs": [
        {
          "internalType": "uint256",
          "name": "",
          "type": "uint256"
        }
      ],
      "stateMutability": "view",
      "type": "function"
    },
    {
      "inputs": [
        {
          "internalType": "uint256",
          "name": "_bountyId",
          "type": "uint256"
        }
      ],
      "name": "cancelBounty",
      "outputs": [],
      "stateMutability": "nonpayable",
      "type": "function"
    },
    {
      "inputs": [
        {
          "internalType": "string",
          "name": "_title",
          "type": "string"
        },
        {
          "internalType": "string",
          "name": "_description",
          "type": "string"
        },
        {
          "internalType": "uint256",
          "name": "_reward",
          "type": "uint256"
        },
        {
          "internalType": "address",
          "name": "_paymentToken",
          "type": "address"
        },
        {
          "internalType": "uint8",
          "name": "_category",
          "type": "uint8"
        }
      ],
      "name": "createBounty",
      "outputs": [
        {
          "internalType": "uint256",
          "name": "bountyId",
          "type": "uint256"
        }
      ],
      "stateMutability": "payable",
      "type": "function"
    },
    {
      "inputs": [
        {
          "internalType": "address",
          "name": "_creator",
          "type": "address"
        }
      ],
      "name": "getBountiesByCreator",
      "outputs": [
        {
          "internalType": "uint256[]",
          "name": "",
          "type": "uint256[]"
        }
      ],
      "stateMutability": "view",
      "type": "function"
    },
    {
      "inputs": [
        {
          "internalType": "enum MicroBounty.BountyStatus",
          "name": "_status",
          "type": "uint8"
        }
      ],
      "name": "getBountiesByStatus",
      "outputs": [
        {
          "internalType": "uint256[]",
          "name": "",
          "type": "uint256[]"
        }
      ],
      "stateMutability": "view",
      "type": "function"
    },
    {
      "inputs": [
        {
          "internalType": "address",
          "name": "_token",
          "type": "address"
        }
      ],
      "name": "getBountiesByToken",
      "outputs": [
        {
          "internalType": "uint256[]",
          "name": "",
          "type": "uint256[]"
        }
      ],
      "stateMutability": "view",
      "type": "function"
    },
    {
      "inputs": [
        {
          "internalType": "uint256",
          "name": "_bountyId",
          "type": "uint256"
        }
      ],
      "name": "getBounty",
      "outputs": [
        {
          "components": [
            {
              "internalType": "uint256",
              "name": "id",
              "type": "uint256"
            },
            {
              "internalType": "address",
              "name": "creator",
              "type": "address"
            },
            {
              "internalType": "string",
              "name": "title",
              "type": "string"
            },
            {
              "internalType": "string",
              "name": "description",
              "type": "string"
            },
            {
              "internalType": "uint256",
              "name": "reward",
              "type": "uint256"
            },
            {
              "internalType": "address",
              "name": "paymentToken",
              "type": "address"
            },
            {
              "internalType": "enum MicroBounty.BountyStatus",
              "name": "status",
              "type": "uint8"
            },
            {
              "internalType": "address",
              "name": "hunter",
              "type": "address"
            },
            {
              "internalType": "string",
              "name": "proofUrl",
              "type": "string"
            },
            {
              "internalType": "string",
              "name": "submissionNotes",
              "type": "string"
            },
            {
              "internalType": "uint256",
              "name": "createdAt",
              "type": "uint256"
            },
            {
              "internalType": "uint256",
              "name": "submittedAt",
              "type": "uint256"
            },
            {
              "internalType": "uint256",
              "name": "completedAt",
              "type": "uint256"
            },
            {
              "internalType": "uint8",
              "name": "category",
              "type": "uint8"
            }
          ],
          "internalType": "struct MicroBounty.Bounty",
          "name": "",
          "type": "tuple"
        }
      ],
      "stateMutability": "view",
      "type": "function"
    },
    {
      "inputs": [],
      "name": "getBountyCount",
      "outputs": [
        {
          "internalType": "uint256",
          "name": "",
          "type": "uint256"
        }
      ],
      "stateMutability": "view",
      "type": "function"
    },
    {
      "inputs": [],
      "name": "getCurrencyStats",
      "outputs": [
        {
          "internalType": "uint256",
          "name": "dotBounties",
          "type": "uint256"
        },
        {
          "internalType": "uint256[]",
          "name": "tokenBounties",
          "type": "uint256[]"
        },
        {
          "internalType": "address[]",
          "name": "tokens",
          "type": "address[]"
        }
      ],
      "stateMutability": "view",
      "type": "function"
    },
    {
      "inputs": [],
      "name": "getPlatformStats",
      "outputs": [
        {
          "components": [
            {
              "internalType": "uint256",
              "name": "totalBounties",
              "type": "uint256"
            },
            {
              "internalType": "uint256",
              "name": "activeBounties",
              "type": "uint256"
            },
            {
              "internalType": "uint256",
              "name": "completedBounties",
              "type": "uint256"
            },
            {
              "internalType": "uint256",
              "name": "cancelledBounties",
              "type": "uint256"
            },
            {
              "internalType": "uint256",
              "name": "totalValueLockedDOT",
              "type": "uint256"
            },
            {
              "internalType": "uint256",
              "name": "totalValueLockedStable",
              "type": "uint256"
            },
            {
              "internalType": "uint256",
              "name": "totalPaidOutDOT",
              "type": "uint256"
            },
            {
              "internalType": "uint256",
              "name": "totalPaidOutStable",
              "type": "uint256"
            }
          ],
          "internalType": "struct MicroBounty.PlatformStats",
          "name": "",
          "type": "tuple"
        }
      ],
      "stateMutability": "view",
      "type": "function"
    },
    {
      "inputs": [],
      "name": "getStatistics",
      "outputs": [
        {
          "internalType": "uint256",
          "name": "totalBounties",
          "type": "uint256"
        },
        {
          "internalType": "uint256",
          "name": "activeBounties",
          "type": "uint256"
        },
        {
          "internalType": "uint256",
          "name": "completedBounties",
          "type": "uint256"
        },
        {
          "internalType": "uint256",
          "name": "cancelledBounties",
          "type": "uint256"
        }
      ],
      "stateMutability": "view",
      "type": "function"
    },
    {
      "inputs": [],
      "name": "getSupportedTokens",
      "outputs": [
        {
          "internalType": "address[]",
          "name": "",
          "type": "address[]"
        }
      ],
      "stateMutability": "view",
      "type": "function"
    },
    {
      "inputs": [
        {
          "internalType": "address",
          "name": "_user",
          "type": "address"
        }
      ],
      "name": "getUserBounties",
      "outputs": [
        {
          "internalType": "uint256[]",
          "name": "",
          "type": "uint256[]"
        }
      ],
      "stateMutability": "view",
      "type": "function"
    },
    {
      "inputs": [
        {
          "internalType": "address",
          "name": "_user",
          "type": "address"
        }
      ],
      "name": "getUserStatistics",
      "outputs": [
        {
          "internalType": "uint256",
          "name": "created",
          "type": "uint256"
        },
        {
          "internalType": "uint256",
          "name": "completed",
          "type": "uint256"
        },
        {
          "internalType": "uint256",
          "name": "totalEarnedDOT",
          "type": "uint256"
        },
        {
          "internalType": "uint256",
          "name": "totalEarnedStable",
          "type": "uint256"
        }
      ],
      "stateMutability": "view",
      "type": "function"
    },
    {
      "inputs": [
        {
          "internalType": "address",
          "name": "_user",
          "type": "address"
        }
      ],
      "name": "getUserStats",
      "outputs": [
        {
          "components": [
            {
              "internalType": "uint256",
              "name": "bountiesCreated",
              "type": "uint256"
            },
            {
              "internalType": "uint256",
              "name": "bountiesCompleted",
              "type": "uint256"
            },
            {
              "internalType": "uint256",
              "name": "totalSpentDOT",
              "type": "uint256"
            },
            {
              "internalType": "uint256",
              "name": "totalSpentStable",
              "type": "uint256"
            },
            {
              "internalType": "uint256",
              "name": "totalEarnedDOT",
              "type": "uint256"
            },
            {
              "internalType": "uint256",
              "name": "totalEarnedStable",
              "type": "uint256"
            }
          ],
          "internalType": "struct MicroBounty.UserStats",
          "name": "",
          "type": "tuple"
        }
      ],
      "stateMutability": "view",
      "type": "function"
    },
    {
      "inputs": [
        {
          "internalType": "address",
          "name": "_user",
          "type": "address"
        }
      ],
      "name": "getUserSubmissions",
      "outputs": [
        {
          "internalType": "uint256[]",
          "name": "",
          "type": "uint256[]"
        }
      ],
      "stateMutability": "view",
      "type": "function"
    },
    {
      "inputs": [
        {
          "internalType": "address",
          "name": "_token",
          "type": "address"
        }
      ],
      "name": "isTokenSupported",
      "outputs": [
        {
          "internalType": "bool",
          "name": "",
          "type": "bool"
        }
      ],
      "stateMutability": "view",
      "type": "function"
    },
    {
      "inputs": [],
      "name": "platformStats",
      "outputs": [
        {
          "internalType": "uint256",
          "name": "totalBounties",
          "type": "uint256"
        },
        {
          "internalType": "uint256",
          "name": "activeBounties",
          "type": "uint256"
        },
        {
          "internalType": "uint256",
          "name": "completedBounties",
          "type": "uint256"
        },
        {
          "internalType": "uint256",
          "name": "cancelledBounties",
          "type": "uint256"
        },
        {
          "internalType": "uint256",
          "name": "totalValueLockedDOT",
          "type": "uint256"
        },
        {
          "internalType": "uint256",
          "name": "totalValueLockedStable",
          "type": "uint256"
        },
        {
          "internalType": "uint256",
          "name": "totalPaidOutDOT",
          "type": "uint256"
        },
        {
          "internalType": "uint256",
          "name": "totalPaidOutStable",
          "type": "uint256"
        }
      ],
      "stateMutability": "view",
      "type": "function"
    },
    {
      "inputs": [
        {
          "internalType": "uint256",
          "name": "_bountyId",
          "type": "uint256"
        },
        {
          "internalType": "string",
          "name": "_proofUrl",
          "type": "string"
        },
        {
          "internalType": "string",
          "name": "_notes",
          "type": "string"
        }
      ],
      "name": "submitWork",
      "outputs": [],
      "stateMutability": "nonpayable",
      "type": "function"
    },
    {
      "inputs": [
        {
          "internalType": "address",
          "name": "",
          "type": "address"
        }
      ],
      "name": "supportedTokens",
      "outputs": [
        {
          "internalType": "bool",
          "name": "",
          "type": "bool"
        }
      ],
      "stateMutability": "view",
      "type": "function"
    },
    {
      "inputs": [
        {
          "internalType": "uint256",
          "name": "",
          "type": "uint256"
        }
      ],
      "name": "tokenList",
      "outputs": [
        {
          "internalType": "address",
          "name": "",
          "type": "address"
        }
      ],
      "stateMutability": "view",
      "type": "function"
    },
    {
      "inputs": [
        {
          "internalType": "address",
          "name": "",
          "type": "address"
        },
        {
          "internalType": "uint256",
          "name": "",
          "type": "uint256"
        }
      ],
      "name": "userBounties",
      "outputs": [
        {
          "internalType": "uint256",
          "name": "",
          "type": "uint256"
        }
      ],
      "stateMutability": "view",
      "type": "function"
    },
    {
      "inputs": [
        {
          "internalType": "address",
          "name": "",
          "type": "address"
        }
      ],
      "name": "userStats",
      "outputs": [
        {
          "internalType": "uint256",
          "name": "bountiesCreated",
          "type": "uint256"
        },
        {
          "internalType": "uint256",
          "name": "bountiesCompleted",
          "type": "uint256"
        },
        {
          "internalType": "uint256",
          "name": "totalSpentDOT",
          "type": "uint256"
        },
        {
          "internalType": "uint256",
          "name": "totalSpentStable",
          "type": "uint256"
        },
        {
          "internalType": "uint256",
          "name": "totalEarnedDOT",
          "type": "uint256"
        },
        {
          "internalType": "uint256",
          "name": "totalEarnedStable",
          "type": "uint256"
        }
      ],
      "stateMutability": "view",
      "type": "function"
    },
    {
      "inputs": [
        {
          "internalType": "address",
          "name": "",
          "type": "address"
        },
        {
          "internalType": "uint256",
          "name": "",
          "type": "uint256"
        }
      ],
      "name": "userSubmissions",
      "outputs": [
        {
          "internalType": "uint256",
          "name": "",
          "type": "uint256"
        }
      ],
      "stateMutability": "view",
      "type": "function"
    },
    {
      "stateMutability": "payable",
      "type": "receive"
    }
  ],
  "bytecode": "0x60806040523461022c57612bcc8038038061001981610231565b92833981019060208183031261022c578051906001600160401b03821161022c570181601f8201121561022c578051916001600160401b0383116101a2578260051b9160208061006a818601610231565b80968152019382010191821161022c57602001915b81831061020c5783600160005560005b81518110156101fd576001600160a01b036100aa8284610256565b5116156101b8576001600160a01b036100c38284610256565b51169081600052600660205260ff60406000205416156100e8575b600191500161008f565b8160005260066020526040600020600160ff1982541617905560075491680100000000000000008310156101a257600183018060075583101561018c57600760009081527fa66cc928b5edb82af9bd49922954155ab7b0942694bea4ce44661d9a8736c68890930180546001600160a01b031916821790556001927f784c8f4dbf0ffedd6e72c76501c545a70f8b203b30a26ce542bf92ba87c248a49080a26100de565b634e487b7160e01b600052603260045260246000fd5b634e487b7160e01b600052604160045260246000fd5b60405162461bcd60e51b815260206004820152601c60248201527f546f6b656e2063616e6e6f74206265207a65726f2061646472657373000000006044820152606490fd5b604051612961908161026b8239f35b82516001600160a01b038116810361022c5781526020928301920161007f565b600080fd5b6040519190601f01601f191682016001600160401b038111838210176101a257604052565b805182101561018c5760209160051b01019056fe60806040526004361015610068575b361561001957600080fd5b60405162461bcd60e51b815260206004820152602160248201527f55736520637265617465426f756e747920746f2066756e6420626f756e7469656044820152607360f81b6064820152608490fd5b60003560e01c806302ef38441461148e57806306641f7e14611565578063136d88831461225f5780632b9234b9146122155780632ef9a160146121f9578063332710d4146120f2578063372d6b27146120b85780633b9e1ab01461205e5780633cd7d243146115835780633e362c96146115655780634e43603a146114935780636591a1851461148e57806368c4ac261461144f57806375151b631461144f57806377bf0e7a1461142f57806381b2948f146111495780638a65d874146110d85780639201ea0a146110bb5780639b7e0180146110625780639ead722214610fe6578063a7ae771314610fca578063a7b8614d14610f3f578063a83583e914610ed7578063aaccaafd14610eb9578063d3c7c2c714610e89578063dc2f874414610d44578063e5e5dff114610af7578063e6cbd661146109eb578063ee8c4bbf1461076a578063f7cbfd18146102c65763fc0a213a0361000e57346102c15760203660031901126102c1576101db61233a565b600180546001600160a01b0390921691906000905b8281111561027c5750610202906126a0565b9160009060015b8381111561022b576040516020808252819061022790820188612350565b0390f35b6000818152600260205260409020600501546001600160a01b0316821461025b575b61025690612664565b610209565b91610274818461026e61025694896126d2565b52612664565b92905061024d565b6000818152600260205260409020600501546001600160a01b031684146102ac575b6102a790612664565b6101f0565b906102b96102a791612664565b91905061029e565b600080fd5b346102c15760603660031901126102c1576004356024356001600160401b0381116102c1576102f99036906004016124b4565b906044356001600160401b0381116102c1576103199036906004016124b4565b8115158061075e575b61032b9061272d565b8160005260026020526040600020906005820160ff815460a01c1660048110156107485761070e5760018301546001600160a01b031633146106b75784511561067a5760c882511161063657805460ff60a01b1916600160a01b1790556006820180546001600160a01b03191633179055835160078301906001600160401b03811161056a576103bb8254612538565b601f81116105ee575b50806020601f821160011461058b57600091610580575b508160011b916000199060031b1c19161790555b805160088301916001600160401b03821161056a5781906104108454612538565b601f8111610517575b50602090601f83116001146104b2576000926104a7575b50508160011b916000199060031b1c19161790555b600a429101553360005260046020526104628160406000206126f3565b7f1ab2c8b3db130b04659c610d59cd31e68a4d43f1e7b4cdb8e98d9571c9c6bfd661049860405193604085526040850190612616565b924260208201528033940390a3005b015190508680610430565b60008581528281209350601f198516905b8181106104ff57509084600195949392106104e6575b505050811b019055610445565b015160001960f88460031b161c191690558680806104d9565b929360206001819287860151815501950193016104c3565b909150836000526020600020601f840160051c81019160208510610560575b90601f859493920160051c01905b8181106105515750610419565b60008155849350600101610544565b9091508190610536565b634e487b7160e01b600052604160045260246000fd5b9050860151876103db565b60008481528181209250601f198416905b8181106105d6575090836001949392106105bd575b5050811b0190556103ef565b88015160001960f88460031b161c1916905587806105b1565b9192602060018192868d01518155019401920161059c565b826000526020600020601f830160051c8101916020841061062c575b601f0160051c01905b81811061062057506103c4565b60008155600101610613565b909150819061060a565b606460405162461bcd60e51b815260206004820152602060248201527f4e6f746573206578636565642032303020636861726163746572206c696d69746044820152fd5b60405162461bcd60e51b8152602060048201526015602482015274141c9bdbd988155493081a5cc81c995c5d5a5c9959605a1b6044820152606490fd5b60405162461bcd60e51b815260206004820152602960248201527f43726561746f722063616e6e6f74207375626d697420746f207468656972206f604482015268776e20626f756e747960b81b6064820152608490fd5b60405162461bcd60e51b81526020600482015260126024820152712137bab73a3c9034b9903737ba1037b832b760711b6044820152606490fd5b634e487b7160e01b600052602160045260246000fd5b50600154821115610322565b346102c15760203660031901126102c15760043560006101a060405161078f81612441565b828152826020820152606060408201526060808201528260808201528260a08201528260c08201528260e0820152606061010082015260606101208201528261014082015282610160820152826101808201520152801515806109df575b6107f69061272d565b6000526002602052604060002060405161080f81612441565b8154815260018201546001600160a01b0316602082019081529161083560028201612572565b6040830190815261084860038301612572565b91606084019283526004810154926080850193845260058201549360ff60a087019560018060a01b038116875260a01c169060c0870191600481101561074857825260068401546001600160a01b031660e088019081526108ab60078601612572565b6101008901908152906108c060088701612572565b936101208a019485526009870154986101408b01998a52600a880154966101608c01978852600b890154986101808d01998a52600c015460ff16996101a08d019a8b52604051809e819e60208352516020830152600160a01b6001900390511690604001525160608d016101c090526101e08d0161093d91612616565b90518c8203601f190160808e01526109559190612616565b945160a08c0152516001600160a01b031660c08b01525161097a9060e08b0190612657565b516001600160a01b031661010089015251878203601f19016101208901526109a29190612616565b9051868203601f19016101408801526109bb9190612616565b935161016086015251610180850152516101a08401525160ff166101c08301520390f35b506001548111156107ed565b346102c15760003660031901126102c1576000610a06612813565b90610a1182516126a0565b91600180545b80821115610a4f57505061022790610a416040519485948552606060208601526060850190612350565b9083820360408501526124fb565b600082815260026020526040902060050154919390916001600160a01b031680610a8c5750610a80610a8691612664565b93612664565b90610a17565b919060009593955b8651811015610ae757836001600160a01b03610ab0838a6126d2565b511614610abf57600101610a94565b610a8692935061026e610ae0610ada83889a989995996126d2565b51612664565b91886126d2565b5093610a86919250949294612664565b346102c15760203660031901126102c157600435610b13612867565b80151580610d38575b610b259061272d565b806000526002602052610b4960018060a01b03600160406000200154163314612771565b8060005260026020526040600020906005820160ff815460a01c16600481101561074857610ce757805460ff60a01b1916600360a01b178155600954610b8e906127c9565b600955610b9c600b54612664565b600b5580546001600160a01b0316610c8d57600080808060048701610bc48154600c546127d6565b600c5560018801549054906001600160a01b03165af1610be26127e3565b5015610c48577f32d4a61e720caa2103cedb0d2a3ef70a47c42f37eb311ec3aa870bb93b6bacfa905b60018401546004909401549054604080519283526001600160a01b03918216602084015242908301529093169280606081015b0390a36001600055005b60405162461bcd60e51b815260206004820152601c60248201527f444f5420726566756e6420746f2063726561746f72206661696c6564000000006044820152606490fd5b7f32d4a61e720caa2103cedb0d2a3ef70a47c42f37eb311ec3aa870bb93b6bacfa90610ce260048501610cc38154600d546127d6565b600d55825460018701549154916001600160a01b039081169116612889565b610c0b565b60405162461bcd60e51b815260206004820152602360248201527f4f6e6c79204f50454e20626f756e746965732063616e2062652063616e63656c6044820152621b195960ea1b6064820152608490fd5b50600154811115610b1c565b346102c15760203660031901126102c157600435600052600260205260406000208054600160a01b600190036001830154169160028101610d8490612572565b610d9060038301612572565b600483015460058401546006850154909492916001600160a01b0390911690610dbb60078501612572565b90610dc860088601612572565b92600986015497600a87015495600b88015497600c015460ff16986040519c8d9c8d5260208d015260408c016101c090526101c08c01610e0791612616565b8b810360608d0152610e1891612616565b9260808b0152600160a01b60019003811660a08b015260c08a019060a01c60ff1690610e4391612657565b60e0890152878103610100890152610e5a91612616565b868103610120880152610e6c91612616565b936101408601526101608501526101808401526101a08301520390f35b346102c15760003660031901126102c157610227610ea5612813565b6040519182916020835260208301906124fb565b346102c15760003660031901126102c1576020604051620f42408152f35b346102c15760203660031901126102c1576001600160a01b03610ef861233a565b166000526005602052604060002080546102276001830154926005600482015491015490604051948594859094939260609260808301968352602083015260408201520152565b346102c15760203660031901126102c1576001600160a01b03610f6061233a565b166000526004602052604060002060405190816020825491828152019160005260206000209060005b818110610fb45761022785610fa081870382612478565b604051918291602083526020830190612350565b8254845260209093019260019283019201610f89565b346102c15760003660031901126102c157602060405160c88152f35b346102c15760203660031901126102c1576004356007548110156102c15760009060075481101561104e5760079091527fa66cc928b5edb82af9bd49922954155ab7b0942694bea4ce44661d9a8736c68801546040516001600160a01b039091168152602090f35b634e487b7160e01b82526032600452602482fd5b346102c15760403660031901126102c15761107b61233a565b6001600160a01b03166000908152600460205260409020805460243591908210156102c1576020916110ac916123f7565b90549060031b1c604051908152f35b346102c15760003660031901126102c15760206040516101f48152f35b346102c15760203660031901126102c1576001600160a01b036110f961233a565b16600052600560205260c0604060002080549060018101549060028101546003820154906005600484015493015493604051958652602086015260408501526060840152608083015260a0820152f35b346102c15760203660031901126102c157600435611165612867565b80151580611423575b6111779061272d565b80600052600260205261119b60018060a01b03600160406000200154163314612771565b8060005260026020526040600020906005820160ff815460a01c166004811015610748576001036113d057805460ff60a01b1916600160a11b17815542600b8401556009546111e9906127c9565b6009556111f7600a54612664565b600a55600683019060018060a01b03825416600052600560205260016040600020016112238154612664565b905580546001600160a01b031661133f5760008080806004880161124a8154600c546127d6565b600c5561125a8154600e546126e6565b600e55805487546001600160a01b0316835260056020526040832060040180549091611285916126e6565b905586549054906001600160a01b03165af161129f6127e3565b50156112fa5760047f440e3c51984cdadbaf8493115e893151f81155f59966dfdf4e9f95c0a4b151e4925b549401549054604080519283526001600160a01b0391821660208401524290830152909316928060608101610c3e565b60405162461bcd60e51b815260206004820152601d60248201527f444f54207472616e7366657220746f2068756e746572206661696c65640000006044820152606490fd5b60047f440e3c51984cdadbaf8493115e893151f81155f59966dfdf4e9f95c0a4b151e4926113cb8287016113768154600d546127d6565b600d556113868154600f546126e6565b600f55805460018060a01b0384541660005260056020526113b060056040600020019182546126e6565b9055845483549154916001600160a01b039081169116612889565b6112ca565b60405162461bcd60e51b815260206004820152602560248201527f426f756e7479206d75737420626520494e5f50524f475245535320746f20617060448201526470726f766560d81b6064820152608490fd5b5060015481111561116e565b346102c15760003660031901126102c157602060405164e8d4a510008152f35b346102c15760203660031901126102c1576001600160a01b0361147061233a565b166000526006602052602060ff604060002054166040519015158152f35b612384565b346102c15760203660031901126102c1576114ac61233a565b600060a06040516114bc8161245d565b828152826020820152826040820152826060820152826080820152015260018060a01b0316600052600560205260c060406000206040516114fc8161245d565b8154918282526001810154602083019081526002820154604084019081526003830154916060850192835260a0600560048601549560808801968752015495019485526040519586525160208601525160408501525160608401525160808301525160a0820152f35b346102c15760003660031901126102c1576020600154604051908152f35b60a03660031901126102c1576004356001600160401b0381116102c1576115ae9036906004016124b4565b6024356001600160401b0381116102c1576115cd9036906004016124b4565b6064356001600160a01b03811681036102c1576084359060ff821682036102c15783518015159081612052575b501561200d5782518015159081612000575b5015611faf57600460ff831611611f77576001600160a01b038116611dff576044353403611daf5764e8d4a5100060443510611d6a57611650604435600c546126e6565b600c555b61165f600154612664565b918260015560405161167081612441565b8381526020810194338652604082019687526060820152604435608082015260018060a01b03831660a0820152600060c0820152600060e08201526020956040516116bb8882612478565b600081526101008301526040516116d28882612478565b6000808252610120840191909152426101408401526101608301819052610180830181905260ff84166101a084015285815260028852604090208251815595516001870180546001600160a01b0319166001600160a01b0392909216919091179055518051906001600160401b03821161056a5781906117556002890154612538565b601f8111611d19575b508890601f8311600114611cad57600092611ca2575b50508160011b916000199060031b1c19161760028601555b60608101518051906001600160401b03821161056a5781906117b16003890154612538565b601f8111611c51575b508890601f8311600114611be557600092611bda575b50508160011b916000199060031b1c19161760038601555b608081015160048681019190915560a08201516005870180546001600160a01b0319166001600160a01b039290921691909117815560c0830151929183101561074857805460ff60a01b191660a09390931b60ff60a01b169290921790915560e08101516006860180546001600160a01b0319166001600160a01b03929092169190911790556101008101518051600092916001600160401b038211611b0457819061189760078a0154612538565b601f8111611b8c575b508990601f8311600114611b23578592611b18575b50508160011b916000199060031b1c19161760078701555b6101208101518051906001600160401b038211611b04576118f16008890154612538565b601f8111611ac2575b508890601f8311600114611a4e5760ff9697988388946101a094600c948992611a43575b50508160011b916000199060031b1c19161760088201555b6101408501516009820155610160850151600a820155610180850151600b820155019201511684198254161790553381526003865261197885604083206126f3565b338152600586526040812061198d8154612664565b90556001600160a01b038416611a215760406002913381526005885220016119b860443582546126e6565b90555b6119c6600854612664565b6008556119d4600954612664565b60095560405192604435845260018060a01b031685840152166040820152817f135b0700885581a02d81a33ed99e9f1a7080741011567bfaa169df67fb4b983560603393a3604051908152f35b6040600391338152600588522001611a3c60443582546126e6565b90556119bb565b015190508d8061191e565b6008890185528985209190601f198416865b8c828210611aac575050846101a094600c9460ff9b9c9d948c9860019510611a93575b505050811b016008820155611936565b015160001960f88460031b161c191690558d8080611a83565b6001859682939686015181550195019301611a60565b600889018552898520601f840160051c81018b8510611afd575b601f830160051c82018110611af25750506118fa565b868155600101611adc565b5080611adc565b634e487b7160e01b84526041600452602484fd5b0151905089806118b5565b60078a0186528a86209250601f198416865b8c828210611b76575050908460019594939210611b5d575b505050811b0160078701556118cd565b015160001960f88460031b161c19169055898080611b4d565b6001859682939686015181550195019301611b35565b909150600789018552898520601f840160051c81018b8510611bd3575b90849392915b601f830160051c82018110611bc55750506118a0565b878155859450600101611baf565b5080611ba9565b0151905088806117d0565b6003890160009081528a81209350601f198516905b8b828210611c3b575050908460019594939210611c22575b505050811b0160038601556117e8565b015160001960f88460031b161c19169055888080611c12565b6001859682939686015181550195019301611bfa565b9091506003880160005288600020601f840160051c81018a8510611c9b575b90849392915b601f830160051c82018110611c8c5750506117ba565b60008155859450600101611c76565b5080611c70565b015190508880611774565b6002890160009081528a81209350601f198516905b8b828210611d03575050908460019594939210611cea575b505050811b01600286015561178c565b015160001960f88460031b161c19169055888080611cda565b6001859682939686015181550195019301611cc2565b9091506002880160005288600020601f840160051c81018a8510611d63575b90849392915b601f830160051c82018110611d5457505061175e565b60008155859450600101611d3e565b5080611d38565b60405162461bcd60e51b815260206004820152601f60248201527f5265776172642062656c6f77206d696e696d756d2028302e303120444f5429006044820152606490fd5b60405162461bcd60e51b815260206004820152602260248201527f6d73672e76616c7565206d75737420657175616c2072657761726420616d6f756044820152611b9d60f21b6064820152608490fd5b6001600160a01b03811660009081526006602052604090205460ff1615611f395734611ee257620f424060443510611e8c57611e766040516323b872dd60e01b6020820152336024820152306044820152604435606482015260648152611e67608482612478565b6001600160a01b0383166128c4565b611e84604435600d546126e6565b600d55611654565b60405162461bcd60e51b815260206004820152602860248201527f5265776172642062656c6f77206d696e696d756d20283120737461626c65636f604482015267696e20756e69742960c01b6064820152608490fd5b60405162461bcd60e51b815260206004820152602960248201527f446f206e6f742073656e6420444f54207768656e207573696e6720616e204552604482015268219918103a37b5b2b760b91b6064820152608490fd5b60405162461bcd60e51b8152602060048201526016602482015275151bdad95b881a5cc81b9bdd081cdd5c1c1bdc9d195960521b6044820152606490fd5b60405162461bcd60e51b815260206004820152601060248201526f496e76616c69642063617465676f727960801b6044820152606490fd5b60405162461bcd60e51b8152602060048201526024808201527f4465736372697074696f6e206d75737420626520312d353030206368617261636044820152637465727360e01b6064820152608490fd5b6101f4915011158561160c565b60405162461bcd60e51b815260206004820152601e60248201527f5469746c65206d75737420626520312d313030206368617261637465727300006044820152606490fd5b606491501115856115fa565b346102c15760003660031901126102c157610100600854600954600a54600b54600c54600d5491600e5493600f5495604051978852602088015260408701526060860152608085015260a084015260c083015260e0820152f35b346102c15760003660031901126102c157600854600954600a54600b54604080519485526020850193909352918301526060820152608090f35b346102c15760203660031901126102c1576004356004811015806102c1576000600190600154915b828111156121a8575061212c906126a0565b9160009060015b83811115612151576040516020808252819061022790820188612350565b8060005260026020528160ff60056040600020015460a01c169061074857600481101561074857861461218d575b61218890612664565b612133565b916121a0818461026e61218894896126d2565b92905061217f565b8060005260026020528360ff60056040600020015460a01c16906107485760048110156107485785146121e4575b6121df90612664565b61211a565b906121f16121df91612664565b9190506121d6565b346102c15760003660031901126102c157602060405160648152f35b346102c15760403660031901126102c15761222e61233a565b6001600160a01b03166000908152600360205260409020805460243591908210156102c1576020916110ac916123f7565b346102c15760003660031901126102c157600060e060405161228081612425565b8281528260208201528260408201528260608201528260808201528260a08201528260c082015201526101006040516122b881612425565b6008549081815260095460208201908152600a5460408301908152600b5460608401908152600c549060808501918252600d549260a08601938452600e549460c0870195865260e0600f5497019687526040519788525160208801525160408701525160608601525160808501525160a08401525160c08301525160e0820152f35b600435906001600160a01b03821682036102c157565b906020808351928381520192019060005b81811061236e5750505090565b8251845260209384019390920191600101612361565b346102c15760203660031901126102c15761239d61233a565b60009060018060a01b03168152600360205260408120604051918260208354918281520192825260208220915b8181106123e15761022785610fa081870382612478565b82548452602090930192600192830192016123ca565b805482101561240f5760005260206000200190600090565b634e487b7160e01b600052603260045260246000fd5b61010081019081106001600160401b0382111761056a57604052565b6101c081019081106001600160401b0382111761056a57604052565b60c081019081106001600160401b0382111761056a57604052565b90601f801991011681019081106001600160401b0382111761056a57604052565b6001600160401b03811161056a57601f01601f191660200190565b81601f820112156102c1578035906124cb82612499565b926124d96040519485612478565b828452602083830101116102c157816000926020809301838601378301015290565b906020808351928381520192019060005b8181106125195750505090565b82516001600160a01b031684526020938401939092019160010161250c565b90600182811c92168015612568575b602083101461255257565b634e487b7160e01b600052602260045260246000fd5b91607f1691612547565b906040519182600082549261258684612538565b80845293600181169081156125f457506001146125ad575b506125ab92500383612478565b565b90506000929192526020600020906000915b8183106125d85750509060206125ab928201013861259e565b60209193508060019154838589010152019101909184926125bf565b9050602092506125ab94915060ff191682840152151560051b8201013861259e565b919082519283825260005b848110612642575050826000602080949584010152601f8019910116010190565b80602080928401015182828601015201612621565b9060048210156107485752565b60001981146126735760010190565b634e487b7160e01b600052601160045260246000fd5b6001600160401b03811161056a5760051b60200190565b906126aa82612689565b6126b76040519182612478565b82815280926126c8601f1991612689565b0190602036910137565b805182101561240f5760209160051b010190565b9190820180921161267357565b80546801000000000000000081101561056a57612715916001820181556123f7565b819291549060031b91821b91600019901b1916179055565b1561273457565b60405162461bcd60e51b8152602060048201526015602482015274109bdd5b9d1e48191bd95cc81b9bdd08195e1a5cdd605a1b6044820152606490fd5b1561277857565b60405162461bcd60e51b8152602060048201526024808201527f4f6e6c792063726561746f722063616e20706572666f726d20746869732061636044820152633a34b7b760e11b6064820152608490fd5b8015612673576000190190565b9190820391821161267357565b3d1561280e573d906127f482612499565b916128026040519384612478565b82523d6000602084013e565b606090565b604051906007548083528260208101600760005260206000209260005b8181106128455750506125ab92500383612478565b84546001600160a01b0316835260019485019487945060209093019201612830565b600260005414612878576002600055565b633ee5aeb560e01b60005260046000fd5b60405163a9059cbb60e01b60208201526001600160a01b0390921660248301526044808301939093529181526125ab916128c4606483612478565b906000602091828151910182855af11561291f576000513d61291657506001600160a01b0381163b155b6128f55750565b635274afe760e01b60009081526001600160a01b0391909116600452602490fd5b600114156128ee565b6040513d6000823e3d90fdfea2646970667358221220a5b4c45e3dcd223cca3c8ac2859fda175a81dfd896762b2ce63b07acd7f4d7a164736f6c634300081c0033",
  "linkReferences": {},
  "deployedLinkReferences": {}
}